{
  "contractName": "PredictionMarket",
  "abi": [
    {
      "inputs": [
        {
          "internalType": "address",
          "name": "_oracle",
          "type": "address"
        }
      ],
      "stateMutability": "nonpayable",
      "type": "constructor"
    },
    {
      "inputs": [
        {
          "internalType": "address",
          "name": "",
          "type": "address"
        },
        {
          "internalType": "enum PredictionMarket.Side",
          "name": "",
          "type": "uint8"
        }
      ],
      "name": "betsPerGambler",
      "outputs": [
        {
          "internalType": "uint256",
          "name": "",
          "type": "uint256"
        }
      ],
      "stateMutability": "view",
      "type": "function"
    },
    {
      "inputs": [],
      "name": "oracle",
      "outputs": [
        {
          "internalType": "address",
          "name": "",
          "type": "address"
        }
      ],
      "stateMutability": "view",
      "type": "function"
    },
    {
      "inputs": [
        {
          "internalType": "enum PredictionMarket.Side",
          "name": "_side",
          "type": "uint8"
        }
      ],
      "name": "placeBet",
      "outputs": [],
      "stateMutability": "payable",
      "type": "function"
    },
    {
      "inputs": [],
      "name": "withdrawGain",
      "outputs": [],
      "stateMutability": "nonpayable",
      "type": "function"
    },
    {
      "inputs": [
        {
          "internalType": "enum PredictionMarket.Side",
          "name": "_winner",
          "type": "uint8"
        },
        {
          "internalType": "enum PredictionMarket.Side",
          "name": "_loser",
          "type": "uint8"
        }
      ],
      "name": "reportResult",
      "outputs": [],
      "stateMutability": "nonpayable",
      "type": "function"
    }
  ],
  "bytecode": "0x608060405234801561001057600080fd5b506040516108313803806108318339818101604052602081101561003357600080fd5b810190808051906020019092919050505080600460006101000a81548173ffffffffffffffffffffffffffffffffffffffff021916908373ffffffffffffffffffffffffffffffffffffffff1602179055505061079c806100956000396000f3fe60806040526004361061004a5760003560e01c80632b539c861461004f57806343046844146100665780634ec942b7146100975780637dc0d1d0146100e25780639d5a373914610123575b600080fd5b34801561005b57600080fd5b50610064610195565b005b6100956004803603602081101561007c57600080fd5b81019080803560ff1690602001909291905050506104b9565b005b3480156100a357600080fd5b506100e0600480360360408110156100ba57600080fd5b81019080803560ff169060200190929190803560ff1690602001909291905050506105f0565b005b3480156100ee57600080fd5b506100f761071b565b604051808273ffffffffffffffffffffffffffffffffffffffff16815260200191505060405180910390f35b34801561012f57600080fd5b5061017f6004803603604081101561014657600080fd5b81019080803573ffffffffffffffffffffffffffffffffffffffff169060200190929190803560ff169060200190929190505050610741565b6040518082815260200191505060405180910390f35b6000600360003373ffffffffffffffffffffffffffffffffffffffff1673ffffffffffffffffffffffffffffffffffffffff16815260200190815260200160002060008060000160009054906101000a900460ff1660018111156101f557fe5b600181111561020057fe5b815260200190815260200160002054905060008111610287576040517f08c379a000000000000000000000000000000000000000000000000000000000815260040180806020018281038252601e8152602001807f796f7520646f206e6f74206861766520616e792077696e6e657220626574000081525060200191505060405180910390fd5b60011515600160009054906101000a900460ff16151514610310576040517f08c379a00000000000000000000000000000000000000000000000000000000081526004018080602001828103825260198152602001807f656c656374696f6e206e6f742066696e6973686564207965740000000000000081525060200191505060405180910390fd5b6000600260008060000160009054906101000a900460ff16600181111561033357fe5b600181111561033e57fe5b81526020019081526020016000205482600260008060000160019054906101000a900460ff16600181111561036f57fe5b600181111561037a57fe5b815260200190815260200160002054028161039157fe5b04820190506000600360003373ffffffffffffffffffffffffffffffffffffffff1673ffffffffffffffffffffffffffffffffffffffff16815260200190815260200160002060008060018111156103e557fe5b60018111156103f057fe5b8152602001908152602001600020819055506000600360003373ffffffffffffffffffffffffffffffffffffffff1673ffffffffffffffffffffffffffffffffffffffff168152602001908152602001600020600060018081111561045157fe5b600181111561045c57fe5b8152602001908152602001600020819055503373ffffffffffffffffffffffffffffffffffffffff166108fc829081150290604051600060405180830381858888f193505050501580156104b4573d6000803e3d6000fd5b505050565b60001515600160009054906101000a900460ff16151514610542576040517f08c379a00000000000000000000000000000000000000000000000000000000081526004018080602001828103825260148152602001807f656c656374696f6e2069732066696e697368656400000000000000000000000081525060200191505060405180910390fd5b346002600083600181111561055357fe5b600181111561055e57fe5b81526020019081526020016000206000828254019250508190555034600360003373ffffffffffffffffffffffffffffffffffffffff1673ffffffffffffffffffffffffffffffffffffffff16815260200190815260200160002060008360018111156105c757fe5b60018111156105d257fe5b81526020019081526020016000206000828254019250508190555050565b3373ffffffffffffffffffffffffffffffffffffffff16600460009054906101000a900473ffffffffffffffffffffffffffffffffffffffff1673ffffffffffffffffffffffffffffffffffffffff16146106b3576040517f08c379a000000000000000000000000000000000000000000000000000000000815260040180806020018281038252600b8152602001807f6f6e6c79206f7261636c6500000000000000000000000000000000000000000081525060200191505060405180910390fd5b816000800160006101000a81548160ff021916908360018111156106d357fe5b0217905550806000800160016101000a81548160ff021916908360018111156106f857fe5b021790555060018060006101000a81548160ff0219169083151502179055505050565b600460009054906101000a900473ffffffffffffffffffffffffffffffffffffffff1681565b600360205281600052604060002060205280600052604060002060009150915050548156fea2646970667358221220916558385758be863f521c2cdc492a04d01ed157625ae6d6a439b8f49b88c29064736f6c63430007030033",
  "immutableReferences": {},
  "source": "pragma solidity ^0.7.3;\n\ncontract PredictionMarket {\n    enum Side { Rahul, Modi}\n    struct Result {\n        Side winner;\n        Side loser;\n    }\n    Result result;\n    bool electionFinished;\n\n    mapping(Side => uint) bets;\n    mapping(address => mapping(Side => uint)) public betsPerGambler;\n    address public oracle;\n\n    constructor(address _oracle) {\n        oracle = _oracle;\n    }\n\n    function placeBet(Side _side) external payable {\n        require(electionFinished == false, 'election is finished');\n        bets[_side] += msg.value;\n        betsPerGambler[msg.sender][_side] += msg.value;\n    }\n\n    function withdrawGain() external {\n        uint gamblerBet = betsPerGambler[msg.sender][result.winner];\n        require(gamblerBet > 0, 'you do not have any winner bet');\n        require(electionFinished == true, 'election not finished yet');\n        uint gain = gamblerBet + bets[result.loser] * gamblerBet / bets[result.winner];\n        betsPerGambler[msg.sender][Side.Rahul] = 0;\n        betsPerGambler[msg.sender][Side.Modi] = 0;\n        msg.sender.transfer(gain);\n    }\n\n    function reportResult(Side _winner, Side _loser) external {\n        require(oracle == msg.sender, 'only oracle');\n        result.winner = _winner;\n        result.loser = _loser;\n        electionFinished = true;\n    }\n}",
  "sourcePath": "/Users/dennyprakash/work/experiments/predictmarket/contracts/PredictionMarket.sol",
  "compiler": {
    "name": "solc",
    "version": "0.7.3+commit.9bfce1f6.Emscripten.clang"
  },
  "schemaVersion": "3.4.3",
  "updatedAt": "2021-12-14T23:28:15.400Z",
  "devdoc": {
    "kind": "dev",
    "methods": {},
    "version": 1
  },
  "userdoc": {
    "kind": "user",
    "methods": {},
    "version": 1
  }
}